{
  "address": "0xF4EEcB0783BF1BAcc4A559609D12a99F7a6577C3",
  "abi": [
    {
      "inputs": [
        {
          "internalType": "address",
          "name": "vrfCoordinatorV2",
          "type": "address"
        },
        {
          "internalType": "uint64",
          "name": "subscriptionId",
          "type": "uint64"
        },
        {
          "internalType": "bytes32",
          "name": "gasLane",
          "type": "bytes32"
        },
        {
          "internalType": "uint256",
          "name": "interval",
          "type": "uint256"
        },
        {
          "internalType": "uint256",
          "name": "entranceFee",
          "type": "uint256"
        },
        {
          "internalType": "uint32",
          "name": "callbackGasLimit",
          "type": "uint32"
        }
      ],
      "stateMutability": "nonpayable",
      "type": "constructor"
    },
    {
      "inputs": [
        {
          "internalType": "address",
          "name": "have",
          "type": "address"
        },
        {
          "internalType": "address",
          "name": "want",
          "type": "address"
        }
      ],
      "name": "OnlyCoordinatorCanFulfill",
      "type": "error"
    },
    {
      "inputs": [],
      "name": "Raffle__NotEnoughETHEntered",
      "type": "error"
    },
    {
      "inputs": [],
      "name": "Raffle__RaffleNotOpen",
      "type": "error"
    },
    {
      "inputs": [],
      "name": "Raffle__TransferFailed",
      "type": "error"
    },
    {
      "inputs": [
        {
          "internalType": "uint256",
          "name": "currentBalance",
          "type": "uint256"
        },
        {
          "internalType": "uint256",
          "name": "numPlayers",
          "type": "uint256"
        },
        {
          "internalType": "uint256",
          "name": "raffleState",
          "type": "uint256"
        }
      ],
      "name": "Raffle__UpkeepNotNeeded",
      "type": "error"
    },
    {
      "anonymous": false,
      "inputs": [
        {
          "indexed": true,
          "internalType": "address",
          "name": "player",
          "type": "address"
        }
      ],
      "name": "RaffleEnter",
      "type": "event"
    },
    {
      "anonymous": false,
      "inputs": [
        {
          "indexed": true,
          "internalType": "uint256",
          "name": "requestId",
          "type": "uint256"
        }
      ],
      "name": "RequestedRaffleWinner",
      "type": "event"
    },
    {
      "anonymous": false,
      "inputs": [
        {
          "indexed": true,
          "internalType": "address",
          "name": "player",
          "type": "address"
        }
      ],
      "name": "WinnerPicked",
      "type": "event"
    },
    {
      "inputs": [
        {
          "internalType": "bytes",
          "name": "",
          "type": "bytes"
        }
      ],
      "name": "checkUpkeep",
      "outputs": [
        {
          "internalType": "bool",
          "name": "upkeepNeeded",
          "type": "bool"
        },
        {
          "internalType": "bytes",
          "name": "",
          "type": "bytes"
        }
      ],
      "stateMutability": "view",
      "type": "function"
    },
    {
      "inputs": [],
      "name": "enterRaffle",
      "outputs": [],
      "stateMutability": "payable",
      "type": "function"
    },
    {
      "inputs": [],
      "name": "getEntranceFee",
      "outputs": [
        {
          "internalType": "uint256",
          "name": "",
          "type": "uint256"
        }
      ],
      "stateMutability": "view",
      "type": "function"
    },
    {
      "inputs": [],
      "name": "getInterval",
      "outputs": [
        {
          "internalType": "uint256",
          "name": "",
          "type": "uint256"
        }
      ],
      "stateMutability": "view",
      "type": "function"
    },
    {
      "inputs": [],
      "name": "getLastTimeStamp",
      "outputs": [
        {
          "internalType": "uint256",
          "name": "",
          "type": "uint256"
        }
      ],
      "stateMutability": "view",
      "type": "function"
    },
    {
      "inputs": [],
      "name": "getNumWords",
      "outputs": [
        {
          "internalType": "uint256",
          "name": "",
          "type": "uint256"
        }
      ],
      "stateMutability": "pure",
      "type": "function"
    },
    {
      "inputs": [],
      "name": "getNumberOfPlayers",
      "outputs": [
        {
          "internalType": "uint256",
          "name": "",
          "type": "uint256"
        }
      ],
      "stateMutability": "view",
      "type": "function"
    },
    {
      "inputs": [
        {
          "internalType": "uint256",
          "name": "index",
          "type": "uint256"
        }
      ],
      "name": "getPlayer",
      "outputs": [
        {
          "internalType": "address",
          "name": "",
          "type": "address"
        }
      ],
      "stateMutability": "view",
      "type": "function"
    },
    {
      "inputs": [],
      "name": "getRaffleState",
      "outputs": [
        {
          "internalType": "enum Raffle.RaffleState",
          "name": "",
          "type": "uint8"
        }
      ],
      "stateMutability": "view",
      "type": "function"
    },
    {
      "inputs": [],
      "name": "getRecentWinner",
      "outputs": [
        {
          "internalType": "address",
          "name": "",
          "type": "address"
        }
      ],
      "stateMutability": "view",
      "type": "function"
    },
    {
      "inputs": [],
      "name": "getRequestConfirmations",
      "outputs": [
        {
          "internalType": "uint256",
          "name": "",
          "type": "uint256"
        }
      ],
      "stateMutability": "pure",
      "type": "function"
    },
    {
      "inputs": [
        {
          "internalType": "bytes",
          "name": "",
          "type": "bytes"
        }
      ],
      "name": "performUpkeep",
      "outputs": [],
      "stateMutability": "nonpayable",
      "type": "function"
    },
    {
      "inputs": [
        {
          "internalType": "uint256",
          "name": "requestId",
          "type": "uint256"
        },
        {
          "internalType": "uint256[]",
          "name": "randomWords",
          "type": "uint256[]"
        }
      ],
      "name": "rawFulfillRandomWords",
      "outputs": [],
      "stateMutability": "nonpayable",
      "type": "function"
    }
  ],
  "transactionHash": "0x1e89acc1ce12bdf2089692ddc9baf3de67b1f683e2283260d9a665ae331d79ea",
  "args": [
    "0x8103B0A8A00be2DDC778e6e7eaa21791Cd364625",
    "6926",
    "0x474e34a077df58807dbe9c96d3c009b23b3c6d0cce433e59bbf5b34f823bc56c",
    "30",
    "10000000000000000",
    "500000"
  ],
  "numDeployments": 1,
  "solcInputHash": "3fd5980ad58ae38a50209c6d13feab76",
  "bytecode": "0x6101606040523480156200001257600080fd5b506040516200180638038062001806833981810160405281019062000038919062000294565b858073ffffffffffffffffffffffffffffffffffffffff1660808173ffffffffffffffffffffffffffffffffffffffff1681525050508573ffffffffffffffffffffffffffffffffffffffff1660a08173ffffffffffffffffffffffffffffffffffffffff16815250508467ffffffffffffffff1660c08167ffffffffffffffff16815250508360e081815250508261012081815250508161014081815250506000600360006101000a81548160ff0219169083600181111562000101576200010062000330565b5b0217905550426000819055508063ffffffff166101008163ffffffff16815250505050505050506200035f565b600080fd5b600073ffffffffffffffffffffffffffffffffffffffff82169050919050565b6000620001608262000133565b9050919050565b620001728162000153565b81146200017e57600080fd5b50565b600081519050620001928162000167565b92915050565b600067ffffffffffffffff82169050919050565b620001b78162000198565b8114620001c357600080fd5b50565b600081519050620001d781620001ac565b92915050565b6000819050919050565b620001f281620001dd565b8114620001fe57600080fd5b50565b6000815190506200021281620001e7565b92915050565b6000819050919050565b6200022d8162000218565b81146200023957600080fd5b50565b6000815190506200024d8162000222565b92915050565b600063ffffffff82169050919050565b6200026e8162000253565b81146200027a57600080fd5b50565b6000815190506200028e8162000263565b92915050565b60008060008060008060c08789031215620002b457620002b36200012e565b5b6000620002c489828a0162000181565b9650506020620002d789828a01620001c6565b9550506040620002ea89828a0162000201565b9450506060620002fd89828a016200023c565b93505060806200031089828a016200023c565b92505060a06200032389828a016200027d565b9150509295509295509295565b7f4e487b7100000000000000000000000000000000000000000000000000000000600052602160045260246000fd5b60805160a05160c05160e051610100516101205161014051611437620003cf600039600081816102fa01526103f70152600081816107de015261084c0152600061069c01526000610658015260006106790152600061061c015260008181610337015261038b01526114376000f3fe6080604052600436106100c25760003560e01c806353a2c19a1161007f57806391ad27b41161005957806391ad27b414610238578063c1c244e814610263578063e55ae4e81461028e578063fd6673f5146102cb576100c2565b806353a2c19a146101a45780635f1b0fd8146101cf5780636e04ff0d146101fa576100c2565b806309bc33a7146100c7578063115cbaf5146100f25780631fe543e31461011d5780632cfcc539146101465780634585e33b14610150578063473f1ddc14610179575b600080fd5b3480156100d357600080fd5b506100dc6102f6565b6040516100e99190610bc1565b60405180910390f35b3480156100fe57600080fd5b5061010761031e565b6040516101149190610c53565b60405180910390f35b34801561012957600080fd5b50610144600480360381019061013f9190610e07565b610335565b005b61014e6103f5565b005b34801561015c57600080fd5b5061017760048036038101906101729190610ebe565b610564565b005b34801561018557600080fd5b5061018e610755565b60405161019b9190610f4c565b60405180910390f35b3480156101b057600080fd5b506101b961077f565b6040516101c69190610bc1565b60405180910390f35b3480156101db57600080fd5b506101e461078e565b6040516101f19190610bc1565b60405180910390f35b34801561020657600080fd5b50610221600480360381019061021c919061101c565b61079b565b60405161022f9291906110ff565b60405180910390f35b34801561024457600080fd5b5061024d610848565b60405161025a9190610bc1565b60405180910390f35b34801561026f57600080fd5b50610278610870565b6040516102859190610bc1565b60405180910390f35b34801561029a57600080fd5b506102b560048036038101906102b0919061112f565b610879565b6040516102c29190610f4c565b60405180910390f35b3480156102d757600080fd5b506102e06108c1565b6040516102ed9190610bc1565b60405180910390f35b60007f0000000000000000000000000000000000000000000000000000000000000000905090565b6000600360009054906101000a900460ff16905090565b7f000000000000000000000000000000000000000000000000000000000000000073ffffffffffffffffffffffffffffffffffffffff163373ffffffffffffffffffffffffffffffffffffffff16146103e757337f00000000000000000000000000000000000000000000000000000000000000006040517f1cf993f40000000000000000000000000000000000000000000000000000000081526004016103de92919061115c565b60405180910390fd5b6103f182826108ce565b5050565b7f000000000000000000000000000000000000000000000000000000000000000034101561044f576040517fbd4e069500000000000000000000000000000000000000000000000000000000815260040160405180910390fd5b6000600181111561046357610462610bdc565b5b600360009054906101000a900460ff16600181111561048557610484610bdc565b5b146104bc576040517fd24a271400000000000000000000000000000000000000000000000000000000815260040160405180910390fd5b6002339080600181540180825580915050600190039060005260206000200160009091909190916101000a81548173ffffffffffffffffffffffffffffffffffffffff021916908373ffffffffffffffffffffffffffffffffffffffff1602179055503373ffffffffffffffffffffffffffffffffffffffff167f0805e1d667bddb8a95f0f09880cf94f403fb596ce79928d9f29b74203ba284d460405160405180910390a2565b600061057e6040518060200160405280600081525061079b565b509050806105ed5747600280549050600360009054906101000a900460ff1660018111156105af576105ae610bdc565b5b6040517f584327aa0000000000000000000000000000000000000000000000000000000081526004016105e493929190611185565b60405180910390fd5b6001600360006101000a81548160ff0219169083600181111561061357610612610bdc565b5b021790555060007f000000000000000000000000000000000000000000000000000000000000000073ffffffffffffffffffffffffffffffffffffffff16635d3b1d307f00000000000000000000000000000000000000000000000000000000000000007f000000000000000000000000000000000000000000000000000000000000000060037f000000000000000000000000000000000000000000000000000000000000000060016040518663ffffffff1660e01b81526004016106dd959493929190611234565b6020604051808303816000875af11580156106fc573d6000803e3d6000fd5b505050506040513d601f19601f82011682018060405250810190610720919061129c565b9050807fcd6e45c8998311cab7e9d4385596cac867e20a0587194b954fa3a731c93ce78b60405160405180910390a250505050565b6000600160009054906101000a900473ffffffffffffffffffffffffffffffffffffffff16905090565b6000600163ffffffff16905090565b6000600361ffff16905090565b600060606000600360009054906101000a900460ff1660018111156107c3576107c2610bdc565b5b600060018111156107d7576107d6610bdc565b5b14905060007f00000000000000000000000000000000000000000000000000000000000000006000544261080b91906112f8565b1190506000806002805490501190506000804711905083801561082b5750825b80156108345750815b801561083d5750805b955050505050915091565b60007f0000000000000000000000000000000000000000000000000000000000000000905090565b60008054905090565b60006002828154811061088f5761088e61132c565b5b9060005260206000200160009054906101000a900473ffffffffffffffffffffffffffffffffffffffff169050919050565b6000600280549050905090565b6000600280549050826000815181106108ea576108e961132c565b5b60200260200101516108fc919061138a565b90506000600282815481106109145761091361132c565b5b9060005260206000200160009054906101000a900473ffffffffffffffffffffffffffffffffffffffff16905080600160006101000a81548173ffffffffffffffffffffffffffffffffffffffff021916908373ffffffffffffffffffffffffffffffffffffffff160217905550600067ffffffffffffffff81111561099d5761099c610cc4565b5b6040519080825280602002602001820160405280156109cb5781602001602082028036833780820191505090505b50600290805190602001906109e1929190610b01565b506000600360006101000a81548160ff02191690836001811115610a0857610a07610bdc565b5b02179055504260008190555060008173ffffffffffffffffffffffffffffffffffffffff1647604051610a3a906113ec565b60006040518083038185875af1925050503d8060008114610a77576040519150601f19603f3d011682016040523d82523d6000602084013e610a7c565b606091505b5050905080610ab7576040517fa1d04b3900000000000000000000000000000000000000000000000000000000815260040160405180910390fd5b8173ffffffffffffffffffffffffffffffffffffffff167f5b690ec4a06fe979403046eaeea5b3ce38524683c3001f662c8b5a829632f7df60405160405180910390a25050505050565b828054828255906000526020600020908101928215610b7a579160200282015b82811115610b795782518260006101000a81548173ffffffffffffffffffffffffffffffffffffffff021916908373ffffffffffffffffffffffffffffffffffffffff16021790555091602001919060010190610b21565b5b509050610b879190610b8b565b5090565b5b80821115610ba4576000816000905550600101610b8c565b5090565b6000819050919050565b610bbb81610ba8565b82525050565b6000602082019050610bd66000830184610bb2565b92915050565b7f4e487b7100000000000000000000000000000000000000000000000000000000600052602160045260246000fd5b60028110610c1c57610c1b610bdc565b5b50565b6000819050610c2d82610c0b565b919050565b6000610c3d82610c1f565b9050919050565b610c4d81610c32565b82525050565b6000602082019050610c686000830184610c44565b92915050565b6000604051905090565b600080fd5b600080fd5b610c8b81610ba8565b8114610c9657600080fd5b50565b600081359050610ca881610c82565b92915050565b600080fd5b6000601f19601f8301169050919050565b7f4e487b7100000000000000000000000000000000000000000000000000000000600052604160045260246000fd5b610cfc82610cb3565b810181811067ffffffffffffffff82111715610d1b57610d1a610cc4565b5b80604052505050565b6000610d2e610c6e565b9050610d3a8282610cf3565b919050565b600067ffffffffffffffff821115610d5a57610d59610cc4565b5b602082029050602081019050919050565b600080fd5b6000610d83610d7e84610d3f565b610d24565b90508083825260208201905060208402830185811115610da657610da5610d6b565b5b835b81811015610dcf5780610dbb8882610c99565b845260208401935050602081019050610da8565b5050509392505050565b600082601f830112610dee57610ded610cae565b5b8135610dfe848260208601610d70565b91505092915050565b60008060408385031215610e1e57610e1d610c78565b5b6000610e2c85828601610c99565b925050602083013567ffffffffffffffff811115610e4d57610e4c610c7d565b5b610e5985828601610dd9565b9150509250929050565b600080fd5b60008083601f840112610e7e57610e7d610cae565b5b8235905067ffffffffffffffff811115610e9b57610e9a610e63565b5b602083019150836001820283011115610eb757610eb6610d6b565b5b9250929050565b60008060208385031215610ed557610ed4610c78565b5b600083013567ffffffffffffffff811115610ef357610ef2610c7d565b5b610eff85828601610e68565b92509250509250929050565b600073ffffffffffffffffffffffffffffffffffffffff82169050919050565b6000610f3682610f0b565b9050919050565b610f4681610f2b565b82525050565b6000602082019050610f616000830184610f3d565b92915050565b600080fd5b600067ffffffffffffffff821115610f8757610f86610cc4565b5b610f9082610cb3565b9050602081019050919050565b82818337600083830152505050565b6000610fbf610fba84610f6c565b610d24565b905082815260208101848484011115610fdb57610fda610f67565b5b610fe6848285610f9d565b509392505050565b600082601f83011261100357611002610cae565b5b8135611013848260208601610fac565b91505092915050565b60006020828403121561103257611031610c78565b5b600082013567ffffffffffffffff8111156110505761104f610c7d565b5b61105c84828501610fee565b91505092915050565b60008115159050919050565b61107a81611065565b82525050565b600081519050919050565b600082825260208201905092915050565b60005b838110156110ba57808201518184015260208101905061109f565b60008484015250505050565b60006110d182611080565b6110db818561108b565b93506110eb81856020860161109c565b6110f481610cb3565b840191505092915050565b60006040820190506111146000830185611071565b818103602083015261112681846110c6565b90509392505050565b60006020828403121561114557611144610c78565b5b600061115384828501610c99565b91505092915050565b60006040820190506111716000830185610f3d565b61117e6020830184610f3d565b9392505050565b600060608201905061119a6000830186610bb2565b6111a76020830185610bb2565b6111b46040830184610bb2565b949350505050565b6000819050919050565b6111cf816111bc565b82525050565b600067ffffffffffffffff82169050919050565b6111f2816111d5565b82525050565b600061ffff82169050919050565b61120f816111f8565b82525050565b600063ffffffff82169050919050565b61122e81611215565b82525050565b600060a08201905061124960008301886111c6565b61125660208301876111e9565b6112636040830186611206565b6112706060830185611225565b61127d6080830184611225565b9695505050505050565b60008151905061129681610c82565b92915050565b6000602082840312156112b2576112b1610c78565b5b60006112c084828501611287565b91505092915050565b7f4e487b7100000000000000000000000000000000000000000000000000000000600052601160045260246000fd5b600061130382610ba8565b915061130e83610ba8565b9250828203905081811115611326576113256112c9565b5b92915050565b7f4e487b7100000000000000000000000000000000000000000000000000000000600052603260045260246000fd5b7f4e487b7100000000000000000000000000000000000000000000000000000000600052601260045260246000fd5b600061139582610ba8565b91506113a083610ba8565b9250826113b0576113af61135b565b5b828206905092915050565b600081905092915050565b50565b60006113d66000836113bb565b91506113e1826113c6565b600082019050919050565b60006113f7826113c9565b915081905091905056fea26469706673582212206b846e88a8ecbeb1537b6b7e6ecb546408e76a8a3e312861038db5bafad3287564736f6c63430008180033",
  "devdoc": {
    "kind": "dev",
    "methods": {},
    "version": 1
  },
  "userdoc": {
    "kind": "user",
    "methods": {},
    "version": 1
  },
  "storageLayout": {
    "storage": [
      {
        "astId": 221,
        "contract": "contracts/Raffle.sol:Raffle",
        "label": "s_lastTimeStamp",
        "offset": 0,
        "slot": "0",
        "type": "t_uint256"
      },
      {
        "astId": 223,
        "contract": "contracts/Raffle.sol:Raffle",
        "label": "s_recentWinner",
        "offset": 0,
        "slot": "1",
        "type": "t_address"
      },
      {
        "astId": 226,
        "contract": "contracts/Raffle.sol:Raffle",
        "label": "s_players",
        "offset": 0,
        "slot": "2",
        "type": "t_array(t_address_payable)dyn_storage"
      },
      {
        "astId": 229,
        "contract": "contracts/Raffle.sol:Raffle",
        "label": "s_raffleState",
        "offset": 0,
        "slot": "3",
        "type": "t_enum(RaffleState)200"
      }
    ],
    "types": {
      "t_address": {
        "encoding": "inplace",
        "label": "address",
        "numberOfBytes": "20"
      },
      "t_address_payable": {
        "encoding": "inplace",
        "label": "address payable",
        "numberOfBytes": "20"
      },
      "t_array(t_address_payable)dyn_storage": {
        "base": "t_address_payable",
        "encoding": "dynamic_array",
        "label": "address payable[]",
        "numberOfBytes": "32"
      },
      "t_enum(RaffleState)200": {
        "encoding": "inplace",
        "label": "enum Raffle.RaffleState",
        "numberOfBytes": "1"
      },
      "t_uint256": {
        "encoding": "inplace",
        "label": "uint256",
        "numberOfBytes": "32"
      }
    }
  }
}